{
  "address": "0xE18468c3965Df18d1D5f0FC1AE8c93bf58F36AC3",
  "abi": [
    {
      "inputs": [
        {
          "internalType": "address",
          "name": "receiver",
          "type": "address"
        },
        {
          "internalType": "uint256",
          "name": "amount",
          "type": "uint256"
        },
        {
          "internalType": "bytes32[]",
          "name": "proof",
          "type": "bytes32[]"
        }
      ],
      "name": "claim",
      "outputs": [],
      "stateMutability": "nonpayable",
      "type": "function"
    },
    {
      "inputs": [
        {
          "internalType": "address",
          "name": "receiver",
          "type": "address"
        },
        {
          "internalType": "uint256",
          "name": "amount",
          "type": "uint256"
        }
      ],
      "name": "hashLeaf",
      "outputs": [
        {
          "internalType": "bytes32",
          "name": "",
          "type": "bytes32"
        }
      ],
      "stateMutability": "pure",
      "type": "function"
    },
    {
      "inputs": [],
      "name": "root",
      "outputs": [
        {
          "internalType": "bytes32",
          "name": "",
          "type": "bytes32"
        }
      ],
      "stateMutability": "view",
      "type": "function"
    },
    {
      "inputs": [
        {
          "internalType": "bytes32",
          "name": "root_",
          "type": "bytes32"
        }
      ],
      "name": "setRoot",
      "outputs": [],
      "stateMutability": "nonpayable",
      "type": "function"
    },
    {
      "inputs": [
        {
          "internalType": "contract AirdroppableToken",
          "name": "token_",
          "type": "address"
        }
      ],
      "name": "setToken",
      "outputs": [],
      "stateMutability": "nonpayable",
      "type": "function"
    },
    {
      "inputs": [],
      "name": "token",
      "outputs": [
        {
          "internalType": "contract AirdroppableToken",
          "name": "",
          "type": "address"
        }
      ],
      "stateMutability": "view",
      "type": "function"
    },
    {
      "inputs": [
        {
          "internalType": "bytes32",
          "name": "",
          "type": "bytes32"
        }
      ],
      "name": "used",
      "outputs": [
        {
          "internalType": "bool",
          "name": "",
          "type": "bool"
        }
      ],
      "stateMutability": "view",
      "type": "function"
    }
  ],
  "transactionHash": "0x5321d3f4b306da0a64652183806d20ec871b31fa1c626d8e8166f6b2e75ad643",
  "args": [],
  "numDeployments": 1,
  "solcInputHash": "571c79b1c717c9532c6749449b1cd7d7",
  "bytecode": "0x608060405234801561001057600080fd5b5061060f806100206000396000f3fe608060405234801561001057600080fd5b506004361061007d5760003560e01c8063bb26acb51161005b578063bb26acb5146100e2578063dab5f34014610103578063ebf0c71714610116578063fc0c546a1461011f57600080fd5b8063144fa6d7146100825780633d13f87414610097578063b07c411f146100aa575b600080fd5b61009561009036600461043f565b61014a565b005b6100956100a5366004610479565b6101ca565b6100cd6100b8366004610555565b60036020526000908152604090205460ff1681565b60405190151581526020015b60405180910390f35b6100f56100f036600461056e565b610317565b6040519081526020016100d9565b610095610111366004610555565b61035e565b6100f560015481565b600254610132906001600160a01b031681565b6040516001600160a01b0390911681526020016100d9565b6002546001600160a01b0316156101a85760405162461bcd60e51b815260206004820152601a60248201527f41697264726f703a20746f6b656e20616c72656164792073657400000000000060448201526064015b60405180910390fd5b600280546001600160a01b0319166001600160a01b0392909216919091179055565b60006101d68484610317565b90506001546101e583836103b3565b146102325760405162461bcd60e51b815260206004820152601c60248201527f41697264726f703a206661696c6564206d65726b6c6520636865636b00000000604482015260640161019f565b60008181526003602052604090205460ff16156102915760405162461bcd60e51b815260206004820152601b60248201527f41697264726f703a2070726f6f6620616c726561647920757365640000000000604482015260640161019f565b60008181526003602052604090819020805460ff1916600117905560025490516340c10f1960e01b81526001600160a01b03868116600483015260248201869052909116906340c10f1990604401600060405180830381600087803b1580156102f957600080fd5b505af115801561030d573d6000803e3d6000fd5b5050505050505050565b6040516bffffffffffffffffffffffff19606084901b1660208201526034810182905260009060540160405160208183030381529060405280519060200120905092915050565b600154156103ae5760405162461bcd60e51b815260206004820152601960248201527f41697264726f703a20726f6f7420616c72656164792073657400000000000000604482015260640161019f565b600155565b600081815b845181101561041f5760008582815181106103d5576103d561059a565b602002602001015190508083116103fb576000838152602082905260409020925061040c565b600081815260208490526040902092505b5080610417816105b0565b9150506103b8565b509392505050565b6001600160a01b038116811461043c57600080fd5b50565b60006020828403121561045157600080fd5b813561045c81610427565b9392505050565b634e487b7160e01b600052604160045260246000fd5b60008060006060848603121561048e57600080fd5b833561049981610427565b92506020848101359250604085013567ffffffffffffffff808211156104be57600080fd5b818701915087601f8301126104d257600080fd5b8135818111156104e4576104e4610463565b8060051b604051601f19603f8301168101818110858211171561050957610509610463565b60405291825284820192508381018501918a83111561052757600080fd5b938501935b828510156105455784358452938501939285019261052c565b8096505050505050509250925092565b60006020828403121561056757600080fd5b5035919050565b6000806040838503121561058157600080fd5b823561058c81610427565b946020939093013593505050565b634e487b7160e01b600052603260045260246000fd5b60006000198214156105d257634e487b7160e01b600052601160045260246000fd5b506001019056fea264697066735822122080e47ac4d9ac98503f19149cf4145c3e97985d21006225b3d387e149e63e1fcf64736f6c634300080b0033",
  "devdoc": {
    "kind": "dev",
    "methods": {},
    "version": 1
  },
  "userdoc": {
    "kind": "user",
    "methods": {},
    "version": 1
  },
  "storageLayout": {
    "storage": [
      {
        "astId": 6,
        "contract": "contracts/Airdrop.sol:Airdrop",
        "label": "_initialized",
        "offset": 0,
        "slot": "0",
        "type": "t_bool"
      },
      {
        "astId": 9,
        "contract": "contracts/Airdrop.sol:Airdrop",
        "label": "_initializing",
        "offset": 1,
        "slot": "0",
        "type": "t_bool"
      },
      {
        "astId": 1175,
        "contract": "contracts/Airdrop.sol:Airdrop",
        "label": "root",
        "offset": 0,
        "slot": "1",
        "type": "t_bytes32"
      },
      {
        "astId": 1178,
        "contract": "contracts/Airdrop.sol:Airdrop",
        "label": "token",
        "offset": 0,
        "slot": "2",
        "type": "t_contract(AirdroppableToken)1377"
      },
      {
        "astId": 1182,
        "contract": "contracts/Airdrop.sol:Airdrop",
        "label": "used",
        "offset": 0,
        "slot": "3",
        "type": "t_mapping(t_bytes32,t_bool)"
      },
      {
        "astId": 1298,
        "contract": "contracts/Airdrop.sol:Airdrop",
        "label": "__gap",
        "offset": 0,
        "slot": "4",
        "type": "t_array(t_uint256)50_storage"
      }
    ],
    "types": {
      "t_array(t_uint256)50_storage": {
        "base": "t_uint256",
        "encoding": "inplace",
        "label": "uint256[50]",
        "numberOfBytes": "1600"
      },
      "t_bool": {
        "encoding": "inplace",
        "label": "bool",
        "numberOfBytes": "1"
      },
      "t_bytes32": {
        "encoding": "inplace",
        "label": "bytes32",
        "numberOfBytes": "32"
      },
      "t_contract(AirdroppableToken)1377": {
        "encoding": "inplace",
        "label": "contract AirdroppableToken",
        "numberOfBytes": "20"
      },
      "t_mapping(t_bytes32,t_bool)": {
        "encoding": "mapping",
        "key": "t_bytes32",
        "label": "mapping(bytes32 => bool)",
        "numberOfBytes": "32",
        "value": "t_bool"
      },
      "t_uint256": {
        "encoding": "inplace",
        "label": "uint256",
        "numberOfBytes": "32"
      }
    }
  }
}