{
  "address": "0x06b98C26f1F89b764587030E2770415ce746E2aB",
  "abi": [
    {
      "anonymous": false,
      "inputs": [
        {
          "indexed": true,
          "internalType": "address",
          "name": "owner",
          "type": "address"
        },
        {
          "indexed": true,
          "internalType": "address",
          "name": "spender",
          "type": "address"
        },
        {
          "indexed": false,
          "internalType": "uint256",
          "name": "value",
          "type": "uint256"
        }
      ],
      "name": "Approval",
      "type": "event"
    },
    {
      "anonymous": false,
      "inputs": [
        {
          "indexed": true,
          "internalType": "address",
          "name": "from",
          "type": "address"
        },
        {
          "indexed": true,
          "internalType": "address",
          "name": "to",
          "type": "address"
        },
        {
          "indexed": false,
          "internalType": "uint256",
          "name": "value",
          "type": "uint256"
        }
      ],
      "name": "Transfer",
      "type": "event"
    },
    {
      "inputs": [
        {
          "internalType": "string",
          "name": "name_",
          "type": "string"
        },
        {
          "internalType": "string",
          "name": "symbol_",
          "type": "string"
        },
        {
          "internalType": "address",
          "name": "airdrop_",
          "type": "address"
        }
      ],
      "name": "__AirdroppableToken_init",
      "outputs": [],
      "stateMutability": "nonpayable",
      "type": "function"
    },
    {
      "inputs": [
        {
          "internalType": "string",
          "name": "",
          "type": "string"
        },
        {
          "internalType": "string",
          "name": "",
          "type": "string"
        },
        {
          "internalType": "address",
          "name": "airdrop_",
          "type": "address"
        }
      ],
      "name": "__AirdroppableToken_init_unchained",
      "outputs": [],
      "stateMutability": "nonpayable",
      "type": "function"
    },
    {
      "inputs": [],
      "name": "airdrop",
      "outputs": [
        {
          "internalType": "address",
          "name": "",
          "type": "address"
        }
      ],
      "stateMutability": "view",
      "type": "function"
    },
    {
      "inputs": [
        {
          "internalType": "address",
          "name": "owner",
          "type": "address"
        },
        {
          "internalType": "address",
          "name": "spender",
          "type": "address"
        }
      ],
      "name": "allowance",
      "outputs": [
        {
          "internalType": "uint256",
          "name": "",
          "type": "uint256"
        }
      ],
      "stateMutability": "view",
      "type": "function"
    },
    {
      "inputs": [
        {
          "internalType": "address",
          "name": "spender",
          "type": "address"
        },
        {
          "internalType": "uint256",
          "name": "amount",
          "type": "uint256"
        }
      ],
      "name": "approve",
      "outputs": [
        {
          "internalType": "bool",
          "name": "",
          "type": "bool"
        }
      ],
      "stateMutability": "nonpayable",
      "type": "function"
    },
    {
      "inputs": [
        {
          "internalType": "address",
          "name": "account",
          "type": "address"
        }
      ],
      "name": "balanceOf",
      "outputs": [
        {
          "internalType": "uint256",
          "name": "",
          "type": "uint256"
        }
      ],
      "stateMutability": "view",
      "type": "function"
    },
    {
      "inputs": [],
      "name": "decimals",
      "outputs": [
        {
          "internalType": "uint8",
          "name": "",
          "type": "uint8"
        }
      ],
      "stateMutability": "view",
      "type": "function"
    },
    {
      "inputs": [
        {
          "internalType": "address",
          "name": "spender",
          "type": "address"
        },
        {
          "internalType": "uint256",
          "name": "subtractedValue",
          "type": "uint256"
        }
      ],
      "name": "decreaseAllowance",
      "outputs": [
        {
          "internalType": "bool",
          "name": "",
          "type": "bool"
        }
      ],
      "stateMutability": "nonpayable",
      "type": "function"
    },
    {
      "inputs": [
        {
          "internalType": "address",
          "name": "spender",
          "type": "address"
        },
        {
          "internalType": "uint256",
          "name": "addedValue",
          "type": "uint256"
        }
      ],
      "name": "increaseAllowance",
      "outputs": [
        {
          "internalType": "bool",
          "name": "",
          "type": "bool"
        }
      ],
      "stateMutability": "nonpayable",
      "type": "function"
    },
    {
      "inputs": [
        {
          "internalType": "address",
          "name": "receiver",
          "type": "address"
        },
        {
          "internalType": "uint256",
          "name": "amount",
          "type": "uint256"
        }
      ],
      "name": "mint",
      "outputs": [],
      "stateMutability": "nonpayable",
      "type": "function"
    },
    {
      "inputs": [],
      "name": "name",
      "outputs": [
        {
          "internalType": "string",
          "name": "",
          "type": "string"
        }
      ],
      "stateMutability": "view",
      "type": "function"
    },
    {
      "inputs": [],
      "name": "symbol",
      "outputs": [
        {
          "internalType": "string",
          "name": "",
          "type": "string"
        }
      ],
      "stateMutability": "view",
      "type": "function"
    },
    {
      "inputs": [],
      "name": "totalSupply",
      "outputs": [
        {
          "internalType": "uint256",
          "name": "",
          "type": "uint256"
        }
      ],
      "stateMutability": "view",
      "type": "function"
    },
    {
      "inputs": [
        {
          "internalType": "address",
          "name": "to",
          "type": "address"
        },
        {
          "internalType": "uint256",
          "name": "amount",
          "type": "uint256"
        }
      ],
      "name": "transfer",
      "outputs": [
        {
          "internalType": "bool",
          "name": "",
          "type": "bool"
        }
      ],
      "stateMutability": "nonpayable",
      "type": "function"
    },
    {
      "inputs": [
        {
          "internalType": "address",
          "name": "from",
          "type": "address"
        },
        {
          "internalType": "address",
          "name": "to",
          "type": "address"
        },
        {
          "internalType": "uint256",
          "name": "amount",
          "type": "uint256"
        }
      ],
      "name": "transferFrom",
      "outputs": [
        {
          "internalType": "bool",
          "name": "",
          "type": "bool"
        }
      ],
      "stateMutability": "nonpayable",
      "type": "function"
    }
  ],
  "transactionHash": "0x92dc16cc90e4dc9c5dc39fb4dbb81a153ebc719750c92924ba910cffb8b55959",
  "args": [],
  "numDeployments": 1,
  "solcInputHash": "571c79b1c717c9532c6749449b1cd7d7",
  "bytecode": "0x608060405234801561001057600080fd5b50610ea3806100206000396000f3fe608060405234801561001057600080fd5b50600436106100f55760003560e01c806340c10f1911610097578063a457c2d711610066578063a457c2d714610206578063a9059cbb14610219578063c1059c601461022c578063dd62ed3e1461023f57600080fd5b806340c10f19146101ad5780634c59b8b1146101c257806370a08231146101d557806395d89b41146101fe57600080fd5b806323b872dd116100d357806323b872dd1461014d578063313ce567146101605780633884d6351461016f578063395093511461019a57600080fd5b806306fdde03146100fa578063095ea7b31461011857806318160ddd1461013b575b600080fd5b610102610278565b60405161010f9190610b30565b60405180910390f35b61012b610126366004610ba1565b61030a565b604051901515815260200161010f565b6035545b60405190815260200161010f565b61012b61015b366004610bcb565b610322565b6040516012815260200161010f565b606554610182906001600160a01b031681565b6040516001600160a01b03909116815260200161010f565b61012b6101a8366004610ba1565b610346565b6101c06101bb366004610ba1565b610385565b005b6101c06101d0366004610caa565b6103f2565b61013f6101e3366004610d1e565b6001600160a01b031660009081526033602052604090205490565b610102610482565b61012b610214366004610ba1565b610491565b61012b610227366004610ba1565b610523565b6101c061023a366004610caa565b610531565b61013f61024d366004610d40565b6001600160a01b03918216600090815260346020908152604080832093909416825291909152205490565b60606036805461028790610d73565b80601f01602080910402602001604051908101604052809291908181526020018280546102b390610d73565b80156103005780601f106102d557610100808354040283529160200191610300565b820191906000526020600020905b8154815290600101906020018083116102e357829003601f168201915b5050505050905090565b6000336103188185856105ba565b5060019392505050565b6000336103308582856106de565b61033b85858561076a565b506001949350505050565b3360008181526034602090815260408083206001600160a01b03871684529091528120549091906103189082908690610380908790610dae565b6105ba565b6065546001600160a01b031633146103e45760405162461bcd60e51b815260206004820152601e60248201527f41697264726f707061626c65546f6b656e3a206e6f742061697264726f70000060448201526064015b60405180910390fd5b6103ee8282610938565b5050565b600054610100900460ff1661040d5760005460ff1615610411565b303b155b61042d5760405162461bcd60e51b81526004016103db90610dd4565b600054610100900460ff1615801561044f576000805461ffff19166101011790555b606580546001600160a01b0319166001600160a01b038416179055801561047c576000805461ff00191690555b50505050565b60606037805461028790610d73565b3360008181526034602090815260408083206001600160a01b0387168452909152812054909190838110156105165760405162461bcd60e51b815260206004820152602560248201527f45524332303a2064656372656173656420616c6c6f77616e63652062656c6f77604482015264207a65726f60d81b60648201526084016103db565b61033b82868684036105ba565b60003361031881858561076a565b600054610100900460ff1661054c5760005460ff1615610550565b303b155b61056c5760405162461bcd60e51b81526004016103db90610dd4565b600054610100900460ff1615801561058e576000805461ffff19166101011790555b6105988484610a17565b6105a38484846103f2565b801561047c576000805461ff001916905550505050565b6001600160a01b03831661061c5760405162461bcd60e51b8152602060048201526024808201527f45524332303a20617070726f76652066726f6d20746865207a65726f206164646044820152637265737360e01b60648201526084016103db565b6001600160a01b03821661067d5760405162461bcd60e51b815260206004820152602260248201527f45524332303a20617070726f766520746f20746865207a65726f206164647265604482015261737360f01b60648201526084016103db565b6001600160a01b0383811660008181526034602090815260408083209487168084529482529182902085905590518481527f8c5be1e5ebec7d5bd14f71427d1e84f3dd0314c0f7b2291e5b200ac8c7c3b925910160405180910390a3505050565b6001600160a01b03838116600090815260346020908152604080832093861683529290522054600019811461047c578181101561075d5760405162461bcd60e51b815260206004820152601d60248201527f45524332303a20696e73756666696369656e7420616c6c6f77616e636500000060448201526064016103db565b61047c84848484036105ba565b6001600160a01b0383166107ce5760405162461bcd60e51b815260206004820152602560248201527f45524332303a207472616e736665722066726f6d20746865207a65726f206164604482015264647265737360d81b60648201526084016103db565b6001600160a01b0382166108305760405162461bcd60e51b815260206004820152602360248201527f45524332303a207472616e7366657220746f20746865207a65726f206164647260448201526265737360e81b60648201526084016103db565b6001600160a01b038316600090815260336020526040902054818110156108a85760405162461bcd60e51b815260206004820152602660248201527f45524332303a207472616e7366657220616d6f756e7420657863656564732062604482015265616c616e636560d01b60648201526084016103db565b6001600160a01b038085166000908152603360205260408082208585039055918516815290812080548492906108df908490610dae565b92505081905550826001600160a01b0316846001600160a01b03167fddf252ad1be2c89b69c2b068fc378daa952ba7f163c4a11628f55a4df523b3ef8460405161092b91815260200190565b60405180910390a361047c565b6001600160a01b03821661098e5760405162461bcd60e51b815260206004820152601f60248201527f45524332303a206d696e7420746f20746865207a65726f20616464726573730060448201526064016103db565b80603560008282546109a09190610dae565b90915550506001600160a01b038216600090815260336020526040812080548392906109cd908490610dae565b90915550506040518181526001600160a01b038316906000907fddf252ad1be2c89b69c2b068fc378daa952ba7f163c4a11628f55a4df523b3ef9060200160405180910390a35050565b600054610100900460ff16610a3e5760405162461bcd60e51b81526004016103db90610e22565b6103ee8282610a4d565b505050565b600054610100900460ff16610a745760405162461bcd60e51b81526004016103db90610e22565b8151610a87906036906020850190610a97565b508051610a489060379060208401905b828054610aa390610d73565b90600052602060002090601f016020900481019282610ac55760008555610b0b565b82601f10610ade57805160ff1916838001178555610b0b565b82800160010185558215610b0b579182015b82811115610b0b578251825591602001919060010190610af0565b50610b17929150610b1b565b5090565b5b80821115610b175760008155600101610b1c565b600060208083528351808285015260005b81811015610b5d57858101830151858201604001528201610b41565b81811115610b6f576000604083870101525b50601f01601f1916929092016040019392505050565b80356001600160a01b0381168114610b9c57600080fd5b919050565b60008060408385031215610bb457600080fd5b610bbd83610b85565b946020939093013593505050565b600080600060608486031215610be057600080fd5b610be984610b85565b9250610bf760208501610b85565b9150604084013590509250925092565b634e487b7160e01b600052604160045260246000fd5b600082601f830112610c2e57600080fd5b813567ffffffffffffffff80821115610c4957610c49610c07565b604051601f8301601f19908116603f01168101908282118183101715610c7157610c71610c07565b81604052838152866020858801011115610c8a57600080fd5b836020870160208301376000602085830101528094505050505092915050565b600080600060608486031215610cbf57600080fd5b833567ffffffffffffffff80821115610cd757600080fd5b610ce387838801610c1d565b94506020860135915080821115610cf957600080fd5b50610d0686828701610c1d565b925050610d1560408501610b85565b90509250925092565b600060208284031215610d3057600080fd5b610d3982610b85565b9392505050565b60008060408385031215610d5357600080fd5b610d5c83610b85565b9150610d6a60208401610b85565b90509250929050565b600181811c90821680610d8757607f821691505b60208210811415610da857634e487b7160e01b600052602260045260246000fd5b50919050565b60008219821115610dcf57634e487b7160e01b600052601160045260246000fd5b500190565b6020808252602e908201527f496e697469616c697a61626c653a20636f6e747261637420697320616c72656160408201526d191e481a5b9a5d1a585b1a5e995960921b606082015260800190565b6020808252602b908201527f496e697469616c697a61626c653a20636f6e7472616374206973206e6f74206960408201526a6e697469616c697a696e6760a81b60608201526080019056fea26469706673582212209bcd9dfd8bfcacd48850ec8e0c23c70b217b6d4f9ea2cb7ac0e1becb5993dfcc64736f6c634300080b0033",
  "devdoc": {
    "kind": "dev",
    "methods": {
      "allowance(address,address)": {
        "details": "See {IERC20-allowance}."
      },
      "approve(address,uint256)": {
        "details": "See {IERC20-approve}. NOTE: If `amount` is the maximum `uint256`, the allowance is not updated on `transferFrom`. This is semantically equivalent to an infinite approval. Requirements: - `spender` cannot be the zero address."
      },
      "balanceOf(address)": {
        "details": "See {IERC20-balanceOf}."
      },
      "decimals()": {
        "details": "Returns the number of decimals used to get its user representation. For example, if `decimals` equals `2`, a balance of `505` tokens should be displayed to a user as `5.05` (`505 / 10 ** 2`). Tokens usually opt for a value of 18, imitating the relationship between Ether and Wei. This is the value {ERC20} uses, unless this function is overridden; NOTE: This information is only used for _display_ purposes: it in no way affects any of the arithmetic of the contract, including {IERC20-balanceOf} and {IERC20-transfer}."
      },
      "decreaseAllowance(address,uint256)": {
        "details": "Atomically decreases the allowance granted to `spender` by the caller. This is an alternative to {approve} that can be used as a mitigation for problems described in {IERC20-approve}. Emits an {Approval} event indicating the updated allowance. Requirements: - `spender` cannot be the zero address. - `spender` must have allowance for the caller of at least `subtractedValue`."
      },
      "increaseAllowance(address,uint256)": {
        "details": "Atomically increases the allowance granted to `spender` by the caller. This is an alternative to {approve} that can be used as a mitigation for problems described in {IERC20-approve}. Emits an {Approval} event indicating the updated allowance. Requirements: - `spender` cannot be the zero address."
      },
      "name()": {
        "details": "Returns the name of the token."
      },
      "symbol()": {
        "details": "Returns the symbol of the token, usually a shorter version of the name."
      },
      "totalSupply()": {
        "details": "See {IERC20-totalSupply}."
      },
      "transfer(address,uint256)": {
        "details": "See {IERC20-transfer}. Requirements: - `to` cannot be the zero address. - the caller must have a balance of at least `amount`."
      },
      "transferFrom(address,address,uint256)": {
        "details": "See {IERC20-transferFrom}. Emits an {Approval} event indicating the updated allowance. This is not required by the EIP. See the note at the beginning of {ERC20}. NOTE: Does not update the allowance if the current allowance is the maximum `uint256`. Requirements: - `from` and `to` cannot be the zero address. - `from` must have a balance of at least `amount`. - the caller must have allowance for ``from``'s tokens of at least `amount`."
      }
    },
    "version": 1
  },
  "userdoc": {
    "kind": "user",
    "methods": {},
    "version": 1
  },
  "storageLayout": {
    "storage": [
      {
        "astId": 6,
        "contract": "contracts/AirdroppableToken.sol:AirdroppableToken",
        "label": "_initialized",
        "offset": 0,
        "slot": "0",
        "type": "t_bool"
      },
      {
        "astId": 9,
        "contract": "contracts/AirdroppableToken.sol:AirdroppableToken",
        "label": "_initializing",
        "offset": 1,
        "slot": "0",
        "type": "t_bool"
      },
      {
        "astId": 1073,
        "contract": "contracts/AirdroppableToken.sol:AirdroppableToken",
        "label": "__gap",
        "offset": 0,
        "slot": "1",
        "type": "t_array(t_uint256)50_storage"
      },
      {
        "astId": 92,
        "contract": "contracts/AirdroppableToken.sol:AirdroppableToken",
        "label": "_balances",
        "offset": 0,
        "slot": "51",
        "type": "t_mapping(t_address,t_uint256)"
      },
      {
        "astId": 98,
        "contract": "contracts/AirdroppableToken.sol:AirdroppableToken",
        "label": "_allowances",
        "offset": 0,
        "slot": "52",
        "type": "t_mapping(t_address,t_mapping(t_address,t_uint256))"
      },
      {
        "astId": 100,
        "contract": "contracts/AirdroppableToken.sol:AirdroppableToken",
        "label": "_totalSupply",
        "offset": 0,
        "slot": "53",
        "type": "t_uint256"
      },
      {
        "astId": 102,
        "contract": "contracts/AirdroppableToken.sol:AirdroppableToken",
        "label": "_name",
        "offset": 0,
        "slot": "54",
        "type": "t_string_storage"
      },
      {
        "astId": 104,
        "contract": "contracts/AirdroppableToken.sol:AirdroppableToken",
        "label": "_symbol",
        "offset": 0,
        "slot": "55",
        "type": "t_string_storage"
      },
      {
        "astId": 685,
        "contract": "contracts/AirdroppableToken.sol:AirdroppableToken",
        "label": "__gap",
        "offset": 0,
        "slot": "56",
        "type": "t_array(t_uint256)45_storage"
      },
      {
        "astId": 1306,
        "contract": "contracts/AirdroppableToken.sol:AirdroppableToken",
        "label": "airdrop",
        "offset": 0,
        "slot": "101",
        "type": "t_address"
      },
      {
        "astId": 1376,
        "contract": "contracts/AirdroppableToken.sol:AirdroppableToken",
        "label": "__gap",
        "offset": 0,
        "slot": "102",
        "type": "t_array(t_uint256)50_storage"
      }
    ],
    "types": {
      "t_address": {
        "encoding": "inplace",
        "label": "address",
        "numberOfBytes": "20"
      },
      "t_array(t_uint256)45_storage": {
        "base": "t_uint256",
        "encoding": "inplace",
        "label": "uint256[45]",
        "numberOfBytes": "1440"
      },
      "t_array(t_uint256)50_storage": {
        "base": "t_uint256",
        "encoding": "inplace",
        "label": "uint256[50]",
        "numberOfBytes": "1600"
      },
      "t_bool": {
        "encoding": "inplace",
        "label": "bool",
        "numberOfBytes": "1"
      },
      "t_mapping(t_address,t_mapping(t_address,t_uint256))": {
        "encoding": "mapping",
        "key": "t_address",
        "label": "mapping(address => mapping(address => uint256))",
        "numberOfBytes": "32",
        "value": "t_mapping(t_address,t_uint256)"
      },
      "t_mapping(t_address,t_uint256)": {
        "encoding": "mapping",
        "key": "t_address",
        "label": "mapping(address => uint256)",
        "numberOfBytes": "32",
        "value": "t_uint256"
      },
      "t_string_storage": {
        "encoding": "bytes",
        "label": "string",
        "numberOfBytes": "32"
      },
      "t_uint256": {
        "encoding": "inplace",
        "label": "uint256",
        "numberOfBytes": "32"
      }
    }
  }
}